:100000003AC649C648C647C646C645C644C643C69C
:1000100042C641C640C63FC63EC63DC63CC63BC6BC
:100020003AC639C638C6FFFFFFFFFFFFFFFFFFFFDD
:10003000FFFFFFFFFFFFFFFFFFFFFFFFFFFFFFFFD0
:10004000FFFFFFFFFFFFFFFFFFFFFFFFFFFFFFFFC0
:10005000FFFFFFFFFFFFFFFFFFFFFFFFFFFFFFFFB0
:10006000FFFFFFFFFFFFFFFFFFFFFFFFFFFFFFFFA0
:10007000FFFFFFFFFFFFFFFFFFFFFFFFFFFFFFFF90
:10008000FFFFFFFFFFFFFFFFFFFFFFFFFFFFFFFF80
:10009000FFFFFFFFFFFFFFFFFFFFFFFFFFFFFFFF70
:1000A000FFFFFFFFFFFFFFFFFFFFFFFFFFFFFFFF60
:1000B000FFFFFFFFFFFFFFFFFFFFFFFFFFFFFFFF50
:1000C000FFFFFFFFFFFFFFFFFFFFFFFFFFFFFFFF40
:1000D000FFFFFFFFFFFFFFFFFFFFFFFFFFFFFFFF30
:1000E000FFFFFFFFFFFFFFFFFFFFFFFFFFFFFFFF20
:1000F000FFFFFFFFFFFFFFFFFFFFFFFFFFFFFFFF10
:10010000FFFFFFFFFFFFFFFFFFFFFFFFFFFFFFFFFF
:10011000FFFFFFFFFFFFFFFFFFFFFFFFFFFFFFFFEF
:10012000FFFFFFFFFFFFFFFFFFFFFFFFFFFFFFFFDF
:10013000FFFFFFFFFFFFFFFFFFFFFFFFFFFFFFFFCF
:10014000FFFFFFFFFFFFFFFFFFFFFFFFFFFFFFFFBF
:10015000FFFFFFFFFFFFFFFFFFFFFFFFFFFFFFFFAF
:10016000FFFFFFFFFFFFFFFFFFFFFFFFFFFFFFFF9F
:10017000FFFFFFFFFFFFFFFFFFFFFFFFFFFFFFFF8F
:10018000FFFFFFFFFFFFFFFFFFFFFFFFFFFFFFFF7F
:10019000FFFFFFFFFFFFFFFFFFFFFFFFFFFFFFFF6F
:1001A000FFFFFFFFFFFFFFFFFFFFFFFFFFFFFFFF5F
:1001B000FFFFFFEFEFEFEFEFEFEFFFEFFFFFFFD7F7
:1001C000D7D7FFFFFFFFFFFFFFFFFFEBEB81D7D785
:1001D000D703AFAFFFFFFFEFC7BBBFC7FBBBC7EF87
:1001E000FFFFFFBF5DBBF7EFDFBB75FBFFFFFFCF7F
:1001F000AFAFDF9F6D6B7789FFFFFFEFEFEFFFFF83
:10020000FFFFFFFFFFFFFFF7EFEFDFDFDFDFDFEFD6
:10021000EFF7FFDFEFEFF7F7F7F7F7EFEFDFFFFFAE
:10022000FF93C701C793FFFFFFFFFFFFFFEFEFEF54
:1002300001EFEFEFFFFFFFFFFFFFFFFFFFFFFFEF0C
:10024000DFFFFFFFFFFFFFFF01FFFFFFFFFFFFFFDC
:10025000FFFFFFFFFFFFFFEFFFFFFFFFFDFBF7EFDC
:10026000DFBF7FFFFFFFFFC7BBBBBBBBBBBBBBC7CA
:10027000FFFFFFEF8FEFEFEFEFEFEF83FFFFFFC722
:10028000BBFBFBF7EFDFBF83FFFFFFC7BBFBFBE75A
:10029000FBFBBBC7FFFFFFF7E7E7D7D7B783F7E362
:1002A000FFFFFF83BFBFBF87FBFBBBC7FFFFFFE7AE
:1002B000DFBFBF87BBBBBBC7FFFFFF83BBFBF7F73E
:1002C000EFEFDFDFFFFFFFC7BBBBBBC7BBBBBBC7DE
:1002D000FFFFFFC7BBBBBBC3FBFBF7CFFFFFFFFFAE
:1002E000FFFFEFFFFFFFFFEFFFFFFFFFFFFFEFFF4E
:1002F000FFFFFFEFDFFFFFFFFFF7EFDFBFDFEFF7EE
:10030000FFFFFFFFFFFF83FF83FFFFFFFFFFFFFFF5
:10031000FFDFEFF7FBF7EFDFFFFFFFC7BBFBFBF7ED
:10032000EFEFFFEFFFFFFFC3BD6555555563BFC737
:10033000FFFFFFCFEFEFD7D7BB83BB11FFFFFF035B
:10034000BDBDBD83BDBDBD03FFFFFFC3BD7F7F7FBF
:100350007F7FBDC3FFFFFF07BBBDBDBDBDBDBB07ED
:10036000FFFFFF01BDBFB787B7BFBD01FFFFFF01A3
:10037000BDBFB787B7BFBF0FFFFFFFC3BD7F7F7F85
:10038000717DBDC3FFFFFF11BBBBBB83BBBBBB11FB
:10039000FFFFFF83EFEFEFEFEFEFEF83FFFFFFC311
:1003A000F7F7F7F7F777778FFFFFFF19BBB7B7AF0F
:1003B0008FB7BB19FFFFFF07DFDFDFDFDFDFDD0107
:1003C000FFFFFF39BB9393ABABBBBB11FFFFFF310B
:1003D000BB9B9BABB3B3BB1BFFFFFFC7BB7D7D7D4F
:1003E0007D7DBBC7FFFFFF03BDBDBD83BFBFBF0F8B
:1003F000FFFFFFC7BB7D7D7D7D7DBBC7C9FFFF03C1
:10040000BDBDBD83B7B7BB19FFFFFF837D7F7F8372
:10041000FDFD7D83FFFFFF016DEFEFEFEFEFEFC716
:10042000FFFFFF11BBBBBBBBBBBBBBC7FFFFFF11CC
:10043000BBBBBBD7D7D7EFEFFFFFFF11BBBBBBAB3E
:10044000ABABD7D7FFFFFF11BBD7D7EFD7D7BB11C8
:10045000FFFFFF11BBBBD7D7EFEFEFC7FFFFFF01D8
:100460007BF7F7EFDFDFBD01FFFFFFC7DFDFDFDF78
:10047000DFDFDFDFC7FFFFFF7FBFDFEFF7FBFDFF42
:10048000FFFFFFC7F7F7F7F7F7F7F7F7C7FFEFD764
:10049000BBFFFFFFFFFFFFFFFFFFFFFFFFFFFFFFB0
:1004A000FFFFFFFFFFFFFFDFEFFFFFFFFFFFFFFF8C
:1004B000FFFFFFFFFFFF87FB837B7B85FFFFFF3F86
:1004C000BFBF83BDBDBDBD03FFFFFFFFFFFF837D3A
:1004D0007F7F7D83FFFFFFF3FBFB837B7B7B7B8148
:1004E000FFFFFFFFFFFF837D017F7D83FFFFFFE7AE
:1004F000DFDF87DFDFDFDF87FFFFFFFFFFFF817BBE
:100500007B7B83FBFBC7FF3FBFBFA79BBBBBBB1175
:10051000FFFFFFEFFFFF8FEFEFEFEF83FFFFFFF72F
:10052000FFFF87F7F7F7F7F7C7FFFF3FBFBFB3B787
:10053000AF8FB739FFFFFFCFEFEFEFEFEFEFEF83B5
:10054000FFFFFFFFFFFF17ABABABAB29FFFFFFFFC9
:10055000FFFF279BBBBBBB11FFFFFFFFFFFF837D9F
:100560007D7D7D83FFFFFFFFFFFF03BDBDBDBD831D
:10057000BF1FFFFFFFFF817B7B7B7B83FBF1FFFFC7
:10058000FFFF13CDDFDFDF07FFFFFFFFFFFF837DEF
:100590008FF37D83FFFFFFFFDFDF87DFDFDFDBE739
:1005A000FFFFFFFFFFFF33BBBBBBB3C9FFFFFFFF75
:1005B000FFFF11BBBBD7D7EFFFFFFFFFFFFF11BB53
:1005C000ABABD7D7FFFFFFFFFFFF11BBC7C7BB1107
:1005D000FFFFFFFFFFFF11BBBBD7D7EFEFCFFFFF41
:1005E000FFFF0377EFDFBB03FFFFFFF3EFEFEFEF5B
:1005F0009FEFEFEFEFF3EFEFEFEFEFEFEFEFEFEF57
:10060000EFEFFF9FEFEFEFEFF3EFEFEFEF9FFFFF66
:100610009D6D73FFFFFFFFFFFFFFFFFFC7C7C7C74A
:10062000C7C7C7C7C7FFFF016DEFEFE1EEEEEAE90D
:10063000FFFFF7C0EEEFEFEFEFEFEFC7FFFFFFFFBA
:10064000FFFFFFFFFFFFFFF7EFFFFBF7FFC1EDEF3E
:10065000EFEFEFC7FFFFFFFFFFFFFFFFFFFFFFDB36
:10066000B7FFFFFFFFFFFFFFFFFFFFABFFFFFFEF46
:10067000EF83EFEFEFEFEFEFFFFFFFEFEF83EFEF32
:10068000EF83EFEFFFFFFFFFE3E3E3E3E3E3E3E306
:10069000E3FFFFDEADDBF7EFDFAD52EDFFFFFF075E
:1006A000B7B7B7B1B6B63631FFFFFFFFFFFFFFFBAD
:1006B000F7EFF7FBFFFFFF13B7B7B781B6B6B61179
:1006C000FFFFF78CDDDBDBC7DBDBDD8CFFFFFF0132
:1006D0006DEFEFE1EEEEEEC6FFFFFF88DDDDDDDD65
:1006E000DDDDDD80F7FFFFDF83DFD3CDDDDDDD8DF9
:1006F000FDFFFFEFF7FFFFFFFFFFFFFFFFFFFFF72C
:10070000EFFFFFFFFFFFFFFFFFFFFFB7DBFFFFFF75
:10071000FFFFFFFFFFFFFFEDDBFFFFFFFFFFFFFF1F
:10072000FFFFFFFFFFFFE7C3E7FFFFFFFFFFFFFF45
:10073000FFFFFF8FFFFFFFFFFFFFFFFFFFFFFF0335
:10074000FFFFFFFFFFFFFFFFE3E3E3E3E3E3E3E399
:10075000E3FFFF04AAAEFFFFFFFFFFFFFFFFFFFF66
:10076000FFFFE7D7D1B6B631FFFFFFFFFFFFFFDF87
:10077000EFF7EFDFFFFFFFFFFFFF33B781B6B611E3
:10078000FFFFFFFBF7FF99DBC7DBDB9CFFFFFFDF12
:1007900083DFD3CDDDDDDD88FFFFFFFFFFFF99DDC8
:1007A000DDDDDDC1F7FFFFFFFFFFFFFFFFFFFFFF05
:1007B000FFFFF780DDDDDDDDE1FDDDE3FFFFFFFFB6
:1007C000C9F780DDDDDDE1FDDDE3FFE1FBFBFBFBE8
:1007D000FBBBBBC7FFFFFFBEC1DDDDDDC1BEFFFF51
:1007E000FFFFFCC0EFEFEFEFEFEFEFC7FFFFFFF70B
:1007F000F7F7F7F7FFF7F7F7F7FFFFE1DDAFB7DB45
:10080000EDF5BB87FFFFDDFF80DEDBC3DBDFDE80D6
:10081000FFFFFFE3DDB2AEAEB2DDE3FFFFFFFFE1BE
:10082000DEBFBB83BBBFDEE1FFFFFFFFFFFFFFEECD
:10083000DDBBDDEEFFFFFFFFFFFFC1FDFFFFFFFFA1
:10084000FFFFFFFFFFFFFFFF80FFFFFFFFFFFFE353
:10085000DDA6AAA6AADDE3FFFFFFFFC1F7F7F7F7C2
:10086000F7F7F7C1FFFFFFF7EBF7FFFFFFFFFFFF12
:10087000FFFFFFF7F7F780F7F7F7FF80FFFFFFC1F4
:10088000F7F7F7F7F7F7F7C1FFFFFFF7FFFFC7F736
:10089000F7F7F7C1FFFFFFFFFDE1EFEFEFEFEFC766
:1008A000FFFFFFFFFFFFDDDDDDDDDDC3DFFFFFC09D
:1008B000858585C5F5F5F5E4FFFFFFFFFFFFFFFF29
:1008C000F7FFFFFFFFFFFFDDFFFFC1BE80BFBEC11F
:1008D000FFFFFF39BB9888ABB0B3BB39FFFFFFFF09
:1008E000FFFFC1BE87BFBEC1FFFFFFFFFFFFFFBB12
:1008F000DDEEDDBBFFFFFFFBFFFFC3FBFBFBFBFBF5
:10090000FBFFFFC1BEBFBFC1FEFEBEC1FFFFFFFFB9
:10091000FFFFC1BEC7F9BEC1FFFFFFDBFFFFC7F787
:10092000F7F7F7C1FFFFFFFBF3EBEBDBC3BBBB113B
:10093000FFFFFF01BDBFBF83BDBDBD03FFFFFF03C1
:10094000BDBDBD83BDBDBD03FFFFFF81DDDFDFDFBB
:10095000DFDFDF8FFFFFFF01BBBBBBBBBBBBBB014F
:100960007DFFFF01BDBFB787B7BFBD01FFFFFF6DB3
:10097000ABABABC7ABABAB6DFFFFFF837DFDFDC387
:10098000FDFD7D83FFFFFF39BBB3B3AB9B9BBB1169
:10099000FFFFE7299BB3B3AB9B9BBB11FFFFFF1985
:1009A000BBB7B78FB7B7BB19FFFFFF81DBDBDBDB63
:1009B000DBDB5B11FFFFFF39BB9393ABABBBBB1121
:1009C000FFFFFF11BBBBBB83BBBBBB11FFFFFFC75F
:1009D000BB7D7D7D7D7DBBC7FFFFFF01BBBBBBBB7F
:1009E000BBBBBB11FFFFFF03BDBDBD83BFBFBF0FBF
:1009F000FFFFFFC3BD7F7F7F7F7FBDC3FFFFFF0181
:100A00006DEFEFEFEFEFEFC7FFFFFF11BBBBBBBB1E
:100A1000C3FBBBC7FFFFFFC7EF836D6D6D83EFC7E0
:100A2000FFFFFF11BBD7D7EFD7D7BB11FFFFFF11D8
:100A3000BBBBBBBBBBBBBB81FDFFFF11BBBBBBBB20
:100A4000C3FBFBF1FFFFFF29ABABABABABABAB83A6
:100A5000FFFFFF29ABABABABABABAB81FDFFFF0F38
:100A60005F5FC3DDDDDDDD83FFFFFF18BDBD8DB53D
:100A7000B5B5B508FFFFFF1FBFBF83BDBDBDBD033B
:100A8000FFFFFF877BFDDDC1DDFD7B87FFFFFF33C0
:100A9000ADADAD8DADADAD33FFFFFF817B7B7B8316
:100AA000DBDBBB21FFFFFFFFFFFF87FB837B7B853A
:100AB000FFFFFFFF017FBF837D7D7D83FFFFFFFF82
:100AC0008F7777077B7B7B87FFFFFFFFFFFF877BAE
:100AD000E79F7B87FFFFFFFFFFFF817B7B7B83FB24
:100AE000BBC7FFFFFFFF837D017F7D83FFFFFFFF0C
:100AF000FFFF6DABC7ABAB6DFFFFFFFFFFFF837D5C
:100B0000E3FB7D83FFFFFFFFFFFF33BBBBBBB3C92D
:100B1000FFFFFFF7EFFF33BBBBBBB3C9FFFFFFFF17
:100B2000FFFF33B78FB7B739FFFFFFFFFFFFF1EBD1
:100B3000EBDBDB39FFFFFFFFFFFFBB9393ABBB3961
:100B4000FFFFFFFFFFFF39BB83BBBB11FFFFFFFFB1
:100B5000FFFF837D7D7D7D83FFFFFFFFFFFF279BE1
:100B6000BBBBBB11FFFFFFFFFFFF03BDBDBDBD83CF
:100B7000BF1FFFFFFFFF837D7F7F7D83FFFFFFFFA1
:100B8000FFFF17ABABABAB29FFFFFFFFFFFF11BBB5
:100B9000BBBBC3FBBBC7FFFFFFC7EF836D6D6D839F
:100BA000EFC7FFFFFFFF11BBC7C7BB11FFFFFFFF71
:100BB000FFFF33BBBBBBB3C9FDFFFFFFFFFF11BB93
:100BC000BBC3FBF1FFFFFFFFFFFF29ABABABAB8369
:100BD000FFFFFFFFFFFF29ABABABAB81FDFFFFFFCB
:100BE000FFFF1F5F43DDDDC3FFFFFFFFFFFF1DBDF5
:100BF0008DB5B50DFFFFFFFFFFFF1FBF83BDBD0319
:100C0000FFFFFFFFFFFF837DE1FD7D83FFFFFFFF10
:100C1000FFFF33AD8DADAD33FFFFFFFFFFFFC1BB66
:100C2000BBC3DB99FFFF53696D706C652050414C6D
:100C3000207465726D696E616C2076312E3220559C
:100C40004152542D32383830306270730053696D20
:100C5000706C6520564741207465726D696E616CD9
:100C60000076312E3220554152542D3238383030F2
:100C700020627073000011241FBECFE5D4E0DEBFF8
:100C8000CDBF13E0A0E6B0E001C01D92A436B107CD
:100C9000E1F77ED3C6C3B4C91F920F920FB60F926D
:100CA00011242F938F939F9383EC82BF80916600D2
:100CB0009091670001969093670080936600809101
:100CC00066009091670022E08D30920741F4109207
:100CD0006700109266001092620310926800809183
:100CE0006600909167008A30910539F08091660026
:100CF000909167008B30910511F412BA02C084E024
:100D000082BB81E0809363038091660090916700CD
:100D10008D32910590F410926303000000000000F2
:100D200000000000000000000000000000000000C3
:100D3000000000000000000019C0809168008F5F73
:100D40008093680080916800883141F4809162034B
:100D50008F5F809362031092680008C0000000005B
:100D6000000000000000000000000000939A9F9126
:100D70008F912F910F900FBE0F901F9018951F927B
:100D80000F920FB60F9211242F938F939F93809100
:100D900066009091670001969093670080936600CB
:100DA000809166009091670021E08833920741F4BA
:100DB0001092670010926600109262031092680011
:100DC000809166009091670021E08233920780F065
:100DD000809166009091670021E08533920740F48E
:100DE000A89A8FE001C000008150E9F7A89807C0D9
:100DF000A8988EE101C000008150E9F7A89A81E02F
:100E0000809363038091660090916700883291051A
:100E100040F0809166009091670021E08731920751
:100E200090F010926303000000000000000000003A
:100E300000000000000000000000000000000000B2
:100E40000000000019C0809168008F5F80936800E7
:100E5000809168008C3041F4809162038F5F8093B1
:100E600062031092680008C000000000000000004B
:100E700000000000000000009F918F912F910F90C3
:100E80000FBE0F901F901895BD9ABC98BB9ABA9A46
:100E900081E08EB980E58DB90895EF92FF920F93AE
:100EA0001F93CF93DF938BE393E066E27CE0B2D2B3
:100EB00078942091620030916300C6E2D0E09FE711
:100EC000F92E00E216E240EB80E9E82E85B7806853
:100ED00085BF889585B78F7785BF5F99F2C08EE013
:100EE000F4C05CB1809164009091650062E0883F3D
:100EF000960709F083C060E070E075C0CB018759A8
:100F00009F4FFC01B6971082FC01B5971082FC013F
:100F1000B4971082FC01B3971082FC01B297108243
:100F2000FC01B1971082FC01B0971082FC017F9701
:100F30001082FC017E971082FC017D971082FC01DB
:100F40007C971082FC017B971082FC017A971082BB
:100F5000FC0179971082FC0178971082FC01779749
:100F60001082FC0176971082FC0175971082FC01BB
:100F700074971082FC0173971082FC0172971082A3
:100F8000FC0171971082FC0170971082FC013F9761
:100F90001082FC013E971082FC013D971082FC01FB
:100FA0003C971082FC013B971082FC013A9710821B
:100FB000FC0139971082FC0138971082FC013797A9
:100FC0001082FC0136971082FC0135971082FC01DB
:100FD00034971082FC0133971082FC013297108203
:100FE0000197FC0110826A5D7F4FF3E06E317F074D
:100FF00009F084CF1092650010926400593021F1FD
:101000005D30C1F1583009F04FC08091640090917B
:101010006500009709F455C0E0916400F091650007
:10102000E759FF4F1082809164009091650001970D
:101030009093650080936400E0916400F0916500F6
:10104000E759FF4F10823DC0809164009091650088
:10105000059652E0883F9507A0F5E0916400F09175
:101060006500E759FF4F1082809164009091650000
:10107000059623C08091640090916500BE01B6D1B1
:101080006331F8F4E0916400F0916500E759FF4F97
:10109000108270E06F5F7F4F6C9FC0016D9F900D5D
:1010A0007C9F900D112409C080916400909165008F
:1010B000FC01E759FF4F50830196909365008093A0
:1010C00064005F990ECF02CF00008150E8F7809155
:1010D0006303882329F1A0916203A19FD001112409
:1010E000A759BF4F8091680090E08A5D9F4F47BB32
:1010F00056E20CC0ED916CE0E69FF0011124E80F80
:10110000F91FE491EFB9000000000000515090F782
:10111000000000000000000000000000E7BAD6CE8A
:101120002F5F3F4F33FF08C0E0916400F0916500EE
:10113000E759FF4F0083CACEE0916400F09165004B
:10114000E759FF4FF082C2CEDF92EF92FF920F93EA
:101150001F93CF93DF9381ED91E06DE47CE05AD152
:1011600085EE91E061E67CE055D1789420916000B5
:1011700030916100C4E1D0E07FE7F72E00E214E196
:101180004CE060EBE62E50E9D52E85B7806885BF30
:10119000889585B78F7785BF5F9BBEC0BAC05CB1AD
:1011A000809164009091650061E08039960709F0B4
:1011B0004DC060E070E03FC0CB0187599F4FFC01FC
:1011C00074971082FC0173971082FC017297108251
:1011D000FC0171971082FC0170971082FC013F970F
:1011E0001082FC013E971082FC013D971082FC01A9
:1011F0003C971082FC013B971082FC013A971082C9
:10120000FC0139971082FC0138971082FC01379756
:101210001082FC0136971082FC0135971082FC0188
:1012200034971082FC0133971082FC0132971082B0
:101230000197FC0110826C5E7F4FF1E0643A7F07FA
:1012400009F0BACF1092650010926400593021F174
:101250005D30C1F1583009F04FC080916400909129
:101260006500009709F455C0E0916400F0916500B5
:10127000E759FF4F108280916400909165000197BB
:101280009093650080936400E0916400F0916500A4
:10129000E759FF4F10823DC0809164009091650036
:1012A000059651E080399507A0F5E0916400F09132
:1012B0006500E759FF4F10828091640090916500AE
:1012C000059623C08091640090916500BE018ED088
:1012D0006331F8F4E0916400F0916500E759FF4F45
:1012E000108270E06F5F7F4F6C9FC0016D9F900D0B
:1012F0007C9F900D112409C080916400909165003D
:10130000FC01E759FF4F508301969093650080934D
:1013100064005F9944CF39CF80916303882321F122
:10132000A0916203A19FD0011124A759BF4F8091C2
:101330006800869590E08A5D9F4F54E10BC0ED9167
:10134000E49FF0011124E80FF91FE491EFB9E7BA27
:1013500000000000515098F700000000000000005D
:1013600000000000D7BA11CF2F5F3F4F33FF08C0F6
:10137000E0916400F0916500E759FF4F008305CFCD
:10138000E0916400F0916500E759FF4FF082FDCED7
:10139000A198A99A79DD1AB81BB886E880BD81E2C8
:1013A00089B910BC20E12AB985B78F7885BF999992
:1013B0000AC0A09A80E094E09BBD8ABD89E08EBD02
:1013C0001FBC29BF0BC0939A8B9A929A8A9A13BE1C
:1013D00083EC82BF82E083BF81E089BF999902C01C
:1013E0005CDD01C0B1DE80E090E00895AA1BBB1B6C
:1013F00051E107C0AA1FBB1FA617B70710F0A61B15
:10140000B70B881F991F5A95A9F780959095BC0135
:10141000CD010895FB01DC0105900D920020E1F75C
:061420000895F894FFCFCF
:00000001FF
